{
  "contractName": "Record",
  "abi": [
    {
      "inputs": [],
      "name": "appointmentCount",
      "outputs": [
        {
          "internalType": "uint256",
          "name": "",
          "type": "uint256"
        }
      ],
      "stateMutability": "view",
      "type": "function",
      "constant": true
    },
    {
      "inputs": [
        {
          "internalType": "uint256",
          "name": "",
          "type": "uint256"
        }
      ],
      "name": "appointmentList",
      "outputs": [
        {
          "internalType": "address",
          "name": "",
          "type": "address"
        }
      ],
      "stateMutability": "view",
      "type": "function",
      "constant": true
    },
    {
      "inputs": [],
      "name": "doctorCount",
      "outputs": [
        {
          "internalType": "uint256",
          "name": "",
          "type": "uint256"
        }
      ],
      "stateMutability": "view",
      "type": "function",
      "constant": true
    },
    {
      "inputs": [
        {
          "internalType": "uint256",
          "name": "",
          "type": "uint256"
        }
      ],
      "name": "doctorList",
      "outputs": [
        {
          "internalType": "address",
          "name": "",
          "type": "address"
        }
      ],
      "stateMutability": "view",
      "type": "function",
      "constant": true
    },
    {
      "inputs": [],
      "name": "owner",
      "outputs": [
        {
          "internalType": "address",
          "name": "",
          "type": "address"
        }
      ],
      "stateMutability": "view",
      "type": "function",
      "constant": true
    },
    {
      "inputs": [],
      "name": "patientCount",
      "outputs": [
        {
          "internalType": "uint256",
          "name": "",
          "type": "uint256"
        }
      ],
      "stateMutability": "view",
      "type": "function",
      "constant": true
    },
    {
      "inputs": [
        {
          "internalType": "uint256",
          "name": "",
          "type": "uint256"
        }
      ],
      "name": "patientList",
      "outputs": [
        {
          "internalType": "address",
          "name": "",
          "type": "address"
        }
      ],
      "stateMutability": "view",
      "type": "function",
      "constant": true
    },
    {
      "inputs": [],
      "name": "permissionGrantedCount",
      "outputs": [
        {
          "internalType": "uint256",
          "name": "",
          "type": "uint256"
        }
      ],
      "stateMutability": "view",
      "type": "function",
      "constant": true
    },
    {
      "inputs": [],
      "name": "Records",
      "outputs": [],
      "stateMutability": "nonpayable",
      "type": "function"
    },
    {
      "inputs": [
        {
          "internalType": "string",
          "name": "_ic",
          "type": "string"
        },
        {
          "internalType": "string",
          "name": "_name",
          "type": "string"
        },
        {
          "internalType": "string",
          "name": "_phone",
          "type": "string"
        },
        {
          "internalType": "string",
          "name": "_gender",
          "type": "string"
        },
        {
          "internalType": "string",
          "name": "_dob",
          "type": "string"
        },
        {
          "internalType": "string",
          "name": "_height",
          "type": "string"
        },
        {
          "internalType": "string",
          "name": "_weight",
          "type": "string"
        },
        {
          "internalType": "string",
          "name": "_houseaddr",
          "type": "string"
        },
        {
          "internalType": "string",
          "name": "_bloodgroup",
          "type": "string"
        },
        {
          "internalType": "string",
          "name": "_allergies",
          "type": "string"
        },
        {
          "internalType": "string",
          "name": "_medication",
          "type": "string"
        },
        {
          "internalType": "string",
          "name": "_emergencyName",
          "type": "string"
        },
        {
          "internalType": "string",
          "name": "_emergencyContact",
          "type": "string"
        }
      ],
      "name": "setDetails",
      "outputs": [],
      "stateMutability": "nonpayable",
      "type": "function"
    },
    {
      "inputs": [
        {
          "internalType": "string",
          "name": "_ic",
          "type": "string"
        },
        {
          "internalType": "string",
          "name": "_name",
          "type": "string"
        },
        {
          "internalType": "string",
          "name": "_phone",
          "type": "string"
        },
        {
          "internalType": "string",
          "name": "_gender",
          "type": "string"
        },
        {
          "internalType": "string",
          "name": "_dob",
          "type": "string"
        },
        {
          "internalType": "string",
          "name": "_height",
          "type": "string"
        },
        {
          "internalType": "string",
          "name": "_weight",
          "type": "string"
        },
        {
          "internalType": "string",
          "name": "_houseaddr",
          "type": "string"
        },
        {
          "internalType": "string",
          "name": "_bloodgroup",
          "type": "string"
        },
        {
          "internalType": "string",
          "name": "_allergies",
          "type": "string"
        },
        {
          "internalType": "string",
          "name": "_medication",
          "type": "string"
        },
        {
          "internalType": "string",
          "name": "_emergencyName",
          "type": "string"
        },
        {
          "internalType": "string",
          "name": "_emergencyContact",
          "type": "string"
        }
      ],
      "name": "editDetails",
      "outputs": [],
      "stateMutability": "nonpayable",
      "type": "function"
    },
    {
      "inputs": [
        {
          "internalType": "string",
          "name": "_ic",
          "type": "string"
        },
        {
          "internalType": "string",
          "name": "_name",
          "type": "string"
        },
        {
          "internalType": "string",
          "name": "_phone",
          "type": "string"
        },
        {
          "internalType": "string",
          "name": "_gender",
          "type": "string"
        },
        {
          "internalType": "string",
          "name": "_dob",
          "type": "string"
        },
        {
          "internalType": "string",
          "name": "_qualification",
          "type": "string"
        },
        {
          "internalType": "string",
          "name": "_major",
          "type": "string"
        }
      ],
      "name": "setDoctor",
      "outputs": [],
      "stateMutability": "nonpayable",
      "type": "function"
    },
    {
      "inputs": [
        {
          "internalType": "string",
          "name": "_ic",
          "type": "string"
        },
        {
          "internalType": "string",
          "name": "_name",
          "type": "string"
        },
        {
          "internalType": "string",
          "name": "_phone",
          "type": "string"
        },
        {
          "internalType": "string",
          "name": "_gender",
          "type": "string"
        },
        {
          "internalType": "string",
          "name": "_dob",
          "type": "string"
        },
        {
          "internalType": "string",
          "name": "_qualification",
          "type": "string"
        },
        {
          "internalType": "string",
          "name": "_major",
          "type": "string"
        }
      ],
      "name": "editDoctor",
      "outputs": [],
      "stateMutability": "nonpayable",
      "type": "function"
    },
    {
      "inputs": [
        {
          "internalType": "address",
          "name": "_addr",
          "type": "address"
        },
        {
          "internalType": "string",
          "name": "_date",
          "type": "string"
        },
        {
          "internalType": "string",
          "name": "_time",
          "type": "string"
        },
        {
          "internalType": "string",
          "name": "_diagnosis",
          "type": "string"
        },
        {
          "internalType": "string",
          "name": "_prescription",
          "type": "string"
        },
        {
          "internalType": "string",
          "name": "_description",
          "type": "string"
        },
        {
          "internalType": "string",
          "name": "_status",
          "type": "string"
        }
      ],
      "name": "setAppointment",
      "outputs": [],
      "stateMutability": "nonpayable",
      "type": "function"
    },
    {
      "inputs": [
        {
          "internalType": "address",
          "name": "_addr",
          "type": "address"
        },
        {
          "internalType": "string",
          "name": "_date",
          "type": "string"
        },
        {
          "internalType": "string",
          "name": "_time",
          "type": "string"
        },
        {
          "internalType": "string",
          "name": "_diagnosis",
          "type": "string"
        },
        {
          "internalType": "string",
          "name": "_prescription",
          "type": "string"
        },
        {
          "internalType": "string",
          "name": "_description",
          "type": "string"
        },
        {
          "internalType": "string",
          "name": "_status",
          "type": "string"
        }
      ],
      "name": "updateAppointment",
      "outputs": [],
      "stateMutability": "nonpayable",
      "type": "function"
    },
    {
      "inputs": [
        {
          "internalType": "address",
          "name": "_address",
          "type": "address"
        }
      ],
      "name": "givePermission",
      "outputs": [
        {
          "internalType": "bool",
          "name": "success",
          "type": "bool"
        }
      ],
      "stateMutability": "nonpayable",
      "type": "function"
    },
    {
      "inputs": [
        {
          "internalType": "address",
          "name": "_address",
          "type": "address"
        }
      ],
      "name": "RevokePermission",
      "outputs": [
        {
          "internalType": "bool",
          "name": "success",
          "type": "bool"
        }
      ],
      "stateMutability": "nonpayable",
      "type": "function"
    },
    {
      "inputs": [],
      "name": "getPatients",
      "outputs": [
        {
          "internalType": "address[]",
          "name": "",
          "type": "address[]"
        }
      ],
      "stateMutability": "view",
      "type": "function",
      "constant": true
    },
    {
      "inputs": [],
      "name": "getDoctors",
      "outputs": [
        {
          "internalType": "address[]",
          "name": "",
          "type": "address[]"
        }
      ],
      "stateMutability": "view",
      "type": "function",
      "constant": true
    },
    {
      "inputs": [],
      "name": "getAppointments",
      "outputs": [
        {
          "internalType": "address[]",
          "name": "",
          "type": "address[]"
        }
      ],
      "stateMutability": "view",
      "type": "function",
      "constant": true
    },
    {
      "inputs": [
        {
          "internalType": "address",
          "name": "_address",
          "type": "address"
        }
      ],
      "name": "searchPatientDemographic",
      "outputs": [
        {
          "internalType": "string",
          "name": "",
          "type": "string"
        },
        {
          "internalType": "string",
          "name": "",
          "type": "string"
        },
        {
          "internalType": "string",
          "name": "",
          "type": "string"
        },
        {
          "internalType": "string",
          "name": "",
          "type": "string"
        },
        {
          "internalType": "string",
          "name": "",
          "type": "string"
        },
        {
          "internalType": "string",
          "name": "",
          "type": "string"
        },
        {
          "internalType": "string",
          "name": "",
          "type": "string"
        }
      ],
      "stateMutability": "view",
      "type": "function",
      "constant": true
    },
    {
      "inputs": [
        {
          "internalType": "address",
          "name": "_address",
          "type": "address"
        }
      ],
      "name": "searchPatientMedical",
      "outputs": [
        {
          "internalType": "string",
          "name": "",
          "type": "string"
        },
        {
          "internalType": "string",
          "name": "",
          "type": "string"
        },
        {
          "internalType": "string",
          "name": "",
          "type": "string"
        },
        {
          "internalType": "string",
          "name": "",
          "type": "string"
        },
        {
          "internalType": "string",
          "name": "",
          "type": "string"
        },
        {
          "internalType": "string",
          "name": "",
          "type": "string"
        }
      ],
      "stateMutability": "view",
      "type": "function",
      "constant": true
    },
    {
      "inputs": [
        {
          "internalType": "address",
          "name": "_address",
          "type": "address"
        }
      ],
      "name": "searchDoctor",
      "outputs": [
        {
          "internalType": "string",
          "name": "",
          "type": "string"
        },
        {
          "internalType": "string",
          "name": "",
          "type": "string"
        },
        {
          "internalType": "string",
          "name": "",
          "type": "string"
        },
        {
          "internalType": "string",
          "name": "",
          "type": "string"
        },
        {
          "internalType": "string",
          "name": "",
          "type": "string"
        },
        {
          "internalType": "string",
          "name": "",
          "type": "string"
        },
        {
          "internalType": "string",
          "name": "",
          "type": "string"
        }
      ],
      "stateMutability": "view",
      "type": "function",
      "constant": true
    },
    {
      "inputs": [
        {
          "internalType": "address",
          "name": "_address",
          "type": "address"
        }
      ],
      "name": "searchAppointment",
      "outputs": [
        {
          "internalType": "address",
          "name": "",
          "type": "address"
        },
        {
          "internalType": "string",
          "name": "",
          "type": "string"
        },
        {
          "internalType": "string",
          "name": "",
          "type": "string"
        },
        {
          "internalType": "string",
          "name": "",
          "type": "string"
        },
        {
          "internalType": "string",
          "name": "",
          "type": "string"
        },
        {
          "internalType": "string",
          "name": "",
          "type": "string"
        },
        {
          "internalType": "string",
          "name": "",
          "type": "string"
        },
        {
          "internalType": "string",
          "name": "",
          "type": "string"
        }
      ],
      "stateMutability": "view",
      "type": "function",
      "constant": true
    },
    {
      "inputs": [
        {
          "internalType": "address",
          "name": "_address",
          "type": "address"
        }
      ],
      "name": "searchRecordDate",
      "outputs": [
        {
          "internalType": "uint256",
          "name": "",
          "type": "uint256"
        }
      ],
      "stateMutability": "view",
      "type": "function",
      "constant": true
    },
    {
      "inputs": [
        {
          "internalType": "address",
          "name": "_address",
          "type": "address"
        }
      ],
      "name": "searchDoctorDate",
      "outputs": [
        {
          "internalType": "uint256",
          "name": "",
          "type": "uint256"
        }
      ],
      "stateMutability": "view",
      "type": "function",
      "constant": true
    },
    {
      "inputs": [
        {
          "internalType": "address",
          "name": "_address",
          "type": "address"
        }
      ],
      "name": "searchAppointmentDate",
      "outputs": [
        {
          "internalType": "uint256",
          "name": "",
          "type": "uint256"
        }
      ],
      "stateMutability": "view",
      "type": "function",
      "constant": true
    },
    {
      "inputs": [],
      "name": "getPatientCount",
      "outputs": [
        {
          "internalType": "uint256",
          "name": "",
          "type": "uint256"
        }
      ],
      "stateMutability": "view",
      "type": "function",
      "constant": true
    },
    {
      "inputs": [],
      "name": "getDoctorCount",
      "outputs": [
        {
          "internalType": "uint256",
          "name": "",
          "type": "uint256"
        }
      ],
      "stateMutability": "view",
      "type": "function",
      "constant": true
    },
    {
      "inputs": [],
      "name": "getAppointmentCount",
      "outputs": [
        {
          "internalType": "uint256",
          "name": "",
          "type": "uint256"
        }
      ],
      "stateMutability": "view",
      "type": "function",
      "constant": true
    },
    {
      "inputs": [],
      "name": "getPermissionGrantedCount",
      "outputs": [
        {
          "internalType": "uint256",
          "name": "",
          "type": "uint256"
        }
      ],
      "stateMutability": "view",
      "type": "function",
      "constant": true
    },
    {
      "inputs": [
        {
          "internalType": "address",
          "name": "_address",
          "type": "address"
        }
      ],
      "name": "getAppointmentPerPatient",
      "outputs": [
        {
          "internalType": "uint256",
          "name": "",
          "type": "uint256"
        }
      ],
      "stateMutability": "view",
      "type": "function",
      "constant": true
    }
  ],
  "bytecode": "0x6080806040523461002a576000600b556000600c556000600d556000600e55614d1790816100308239f35b600080fdfe608080604052600436101561001357600080fd5b60003560e01c90816302516abd146147c657508063127ca4b41461476b57806312ad1c37146146e8578063245f968614613f1c57806324c24b2b146102ff578063261b73f31461380c57806329e4afbb1461017f5780632a825ba0146137025780633622b7f61461281c5780633bc98280146127c15780633d391f70146127625780634c14b38d14612725578063625961fc146126e857806378522bc4146126ca57806379111c1c146126ca5780638b945c6d14611e2c5780638da5cb5b14611e035780639204198214611ce657806396b80d0814611c6257806399a363c614610c945780639e00d4cd14610c6f578063a0303c41146102e1578063a5aca8bc14610445578063b13d5d94146103b5578063babb1d411461035a578063bd6f972b1461031d578063c0cb24ba146102ff578063c190665b146102e1578063caee6c8514610237578063e6fce0d2146101dc578063e93a15b9146101a25763eebc3fb21461017f57600080fd5b3461019d57600036600319011261019d576020600d54604051908152f35b600080fd5b3461019d57602036600319011261019d576001600160a01b036101c3614810565b16600052600a6020526020604060002054604051908152f35b3461019d57602036600319011261019d5760043560035481101561019d5760036000527fc2575a0e9e593c00f959f8c92f12db2869c3395a3b0502d05e2516446f71f85b01546040516001600160a01b039091168152602090f35b3461019d57602036600319011261019d576001600160a01b03610258614810565b16600052600960205260ff604060002054161561019d576005602052604060002061028281614c3b565b6102dd61029160018401614c3b565b9261029e60028201614c3b565b906102ab60038201614c3b565b6102b760048301614c3b565b906102d060066102c960058601614c3b565b9401614c3b565b9360405197889788614b1a565b0390f35b3461019d57600036600319011261019d576020600b54604051908152f35b3461019d57600036600319011261019d576020600e54604051908152f35b3461019d57602036600319011261019d576001600160a01b0361033e614810565b1660005260046020526020600e60406000200154604051908152f35b3461019d57602036600319011261019d5760043560015481101561019d5760016000527fb10e2d527612073b26eecdfd717e6a320cf44b4afac2b0732d9fcbe2b7fa0cf601546040516001600160a01b039091168152602090f35b3461019d57600036600319011261019d57604051806002549182815260208091019260026000527f405787fa12a823e0f2b7631cc41b3ba8828b3321ca811111fa75cd3aa3bb5ace916000905b828210610425576102dd856104198189038261486a565b60405191829182614826565b83546001600160a01b031686529485019460019384019390910190610402565b3461019d5761045336614b98565b9390949592919533600052600960205260ff604060002054161561019d5760056020526040600020938051906001600160401b0382116107b35781906104998754614bdc565b601f8111610c1c575b50602090601f8311600114610bb657600092610bab575b50508160011b916000199060031b1c19161784555b8051906001600160401b0382116107b35781906104ee6001870154614bdc565b601f8111610b58575b50602090601f8311600114610aeb57600092610ae0575b50508160011b916000199060031b1c19161760018401555b8051906001600160401b0382116107b35781906105466002860154614bdc565b601f8111610a8a575b50602090601f8311600114610a1d57600092610a12575b50508160011b916000199060031b1c19161760028301555b8051906001600160401b0382116107b357819061059e6003850154614bdc565b601f81116109bc575b50602090601f831160011461094f57600092610944575b50508160011b916000199060031b1c19161760038201555b83516001600160401b0381116107b3576105f36004830154614bdc565b601f81116108f9575b50602094601f821160011461088d57948192939495600092610882575b50508160011b916000199060031b1c19161760048201555b6005810183516001600160401b0381116107b35761064f8254614bdc565b601f811161083a575b50602094601f82116001146107d4579481929394956000926107c9575b50508160011b916000199060031b1c19161790555b600681018251926001600160401b0384116107b3576106a98254614bdc565b601f811161076b575b50602090601f85116001146107015760079491600091836106f6575b50508160011b916000199060031b1c19161790555b0180546001600160a01b03191633179055005b0151905085806106ce565b90601f198516918360005260206000209260005b8181106107535750916001939187600798941061073a575b505050811b0190556106e3565b015160001960f88460031b161c1916905585808061072d565b92936020600181928786015181550195019301610715565b826000526020600020601f860160051c810191602087106107a9575b601f0160051c01905b81811061079d57506106b2565b60008155600101610790565b9091508190610787565b634e487b7160e01b600052604160045260246000fd5b015190508580610675565b601f198216958360005260206000209160005b88811061082257508360019596979810610809575b505050811b01905561068a565b015160001960f88460031b161c191690558580806107fc565b919260206001819286850151815501940192016107e7565b826000526020600020601f830160051c81019160208410610878575b601f0160051c01905b81811061086c5750610658565b6000815560010161085f565b9091508190610856565b015190508580610619565b601f198216956004840160005260206000209160005b8881106108e1575083600195969798106108c8575b505050811b016004820155610631565b015160001960f88460031b161c191690558580806108b8565b919260206001819286850151815501940192016108a3565b600483016000526020600020601f830160051c8101916020841061093a575b601f0160051c01905b81811061092e57506105fc565b60008155600101610921565b9091508190610918565b0151905086806105be565b600385016000908152602081209350601f198516905b8181106109a4575090846001959493921061098b575b505050811b0160038201556105d6565b015160001960f88460031b161c1916905586808061097b565b92936020600181928786015181550195019301610965565b909150600384016000526020600020601f840160051c81019160208510610a08575b90601f859493920160051c01905b8181106109f957506105a7565b600081558493506001016109ec565b90915081906109de565b015190508780610566565b600286016000908152602081209350601f198516905b818110610a725750908460019594939210610a59575b505050811b01600283015561057e565b015160001960f88460031b161c19169055878080610a49565b92936020600181928786015181550195019301610a33565b909150600285016000526020600020601f840160051c81019160208510610ad6575b90601f859493920160051c01905b818110610ac7575061054f565b60008155849350600101610aba565b9091508190610aac565b01519050888061050e565b600187016000908152602081209350601f198516905b818110610b405750908460019594939210610b27575b505050811b016001840155610526565b015160001960f88460031b161c19169055888080610b17565b92936020600181928786015181550195019301610b01565b909150600186016000526020600020601f840160051c810160208510610ba4575b90849392915b601f830160051c82018110610b955750506104f7565b60008155859450600101610b7f565b5080610b79565b0151905089806104b9565b6000888152602081209350601f198516905b818110610c045750908460019594939210610beb575b505050811b0184556104ce565b015160001960f88460031b161c19169055898080610bde565b92936020600181928786015181550195019301610bc8565b909150866000526020600020601f840160051c81019160208510610c65575b90601f859493920160051c01905b818110610c5657506104a2565b60008155849350600101610c49565b9091508190610c3b565b3461019d57600036600319011261019d57600080546001600160a01b03191633179055005b3461019d57610ca2366149d6565b99909a9b98919b97929796939695949533600052600860205260ff6040600020541661019d5760046020526040600020998051906001600160401b0382116107b3578190610cf08d54614bdc565b601f8111611c12575b50602090601f8311600114611ba657600092611b9b575b50508160011b916000199060031b1c1916178a555b8051906001600160401b0382116107b3578190610d4560018d0154614bdc565b601f8111611b48575b50602090601f8311600114611ad657600092611acb575b50508160011b916000199060031b1c19161760018a01555b8051906001600160401b0382116107b3578190610d9d60028c0154614bdc565b601f8111611a78575b50602090601f8311600114611a06576000926119fb575b50508160011b916000199060031b1c19161760028901555b8051906001600160401b0382116107b3578190610df560038b0154614bdc565b601f81116119a8575b50602090601f83116001146119365760009261192b575b50508160011b916000199060031b1c19161760038801555b8051906001600160401b0382116107b3578190610e4d60048a0154614bdc565b601f81116118d8575b50602090601f83116001146118665760009261185b575b50508160011b916000199060031b1c19161760048701555b8051906001600160401b0382116107b3578190610ea56005890154614bdc565b601f8111611808575b50602090601f83116001146117965760009261178b575b50508160011b916000199060031b1c19161760058601555b8051906001600160401b0382116107b3578190610efd6006880154614bdc565b601f8111611738575b50602090601f83116001146116c6576000926116bb575b50508160011b916000199060031b1c19161760068501555b8051906001600160401b0382116107b3578190610f556007870154614bdc565b601f8111611668575b50602090601f83116001146115f6576000926115eb575b50508160011b916000199060031b1c19161760078401555b8051906001600160401b0382116107b3578190610fad6008860154614bdc565b601f8111611598575b50602090601f83116001146115265760009261151b575b50508160011b916000199060031b1c19161760088301555b8051906001600160401b0382116107b35781906110056009850154614bdc565b601f81116114c8575b50602090601f83116001146114565760009261144b575b50508160011b916000199060031b1c19161760098201555b83516001600160401b0381116107b35761105a600a830154614bdc565b601f8111611404575b506020601f821160011461139557819293949560009261138a575b50508160011b916000199060031b1c191617600a8201555b82516001600160401b0381116107b3576110b3600b830154614bdc565b601f811161133f575b506020601f82116001146112d157819293946000926112c6575b50508160011b916000199060031b1c191617600b8201555b600c810182516001600160401b0381116107b35761110c8254614bdc565b601f811161127e575b506020601f8211600114611218578192939460009261120d575b50508160011b916000199060031b1c19161790555b600d8101906bffffffffffffffffffffffff60a01b913383825416179055600e42910155600154600160401b8110156107b35760018101806001558110156111f7577fb10e2d527612073b26eecdfd717e6a320cf44b4afac2b0732d9fcbe2b7fa0cf601903390825416179055336000526008602052604060002060ff19906001828254161790556007602052604060002060205260016040600020918254161790556111f2600b54614c16565b600b55005b634e487b7160e01b600052603260045260246000fd5b01519050848061112f565b601f198216908360005260206000209160005b8181106112665750958360019596971061124d575b505050811b019055611144565b015160001960f88460031b161c19169055848080611240565b9192602060018192868b01518155019401920161122b565b826000526020600020601f830160051c810191602084106112bc575b601f0160051c01905b8181106112b05750611115565b600081556001016112a3565b909150819061129a565b0151905084806110d6565b600b830160005260206000209060005b601f19841681106113275750600193949583601f1981161061130e575b505050811b01600b8201556110ee565b015160001960f88460031b161c191690558480806112fe565b9091602060018192858a0151815501930191016112e1565b600b83016000526020600020601f830160051c81019160208410611380575b601f0160051c01905b81811061137457506110bc565b60008155600101611367565b909150819061135e565b01519050858061107e565b600a830160005260206000209060005b601f19841681106113ec575060019394959683601f198116106113d3575b505050811b01600a820155611096565b015160001960f88460031b161c191690558580806113c3565b9091602060018192858b0151815501930191016113a5565b600a83016000526020600020601f830160051c810160208410611444575b601f830160051c82018110611438575050611063565b60008155600101611422565b5080611422565b015190508680611025565b9250600984016000526020600020906000935b601f19841685106114ad576001945083601f19811610611494575b505050811b01600982015561103d565b015160001960f88460031b161c19169055868080611484565b81810151835560209485019460019093019290910190611469565b909150600984016000526020600020601f840160051c810160208510611514575b90849392915b601f830160051c8201811061150557505061100e565b600081558594506001016114ef565b50806114e9565b015190508780610fcd565b9250600885016000526020600020906000935b601f198416851061157d576001945083601f19811610611564575b505050811b016008830155610fe5565b015160001960f88460031b161c19169055878080611554565b81810151835560209485019460019093019290910190611539565b909150600885016000526020600020601f840160051c8101602085106115e4575b90849392915b601f830160051c820181106115d5575050610fb6565b600081558594506001016115bf565b50806115b9565b015190508880610f75565b9250600786016000526020600020906000935b601f198416851061164d576001945083601f19811610611634575b505050811b016007840155610f8d565b015160001960f88460031b161c19169055888080611624565b81810151835560209485019460019093019290910190611609565b909150600786016000526020600020601f840160051c8101602085106116b4575b90849392915b601f830160051c820181106116a5575050610f5e565b6000815585945060010161168f565b5080611689565b015190508980610f1d565b9250600687016000526020600020906000935b601f198416851061171d576001945083601f19811610611704575b505050811b016006850155610f35565b015160001960f88460031b161c191690558980806116f4565b818101518355602094850194600190930192909101906116d9565b909150600687016000526020600020601f840160051c810160208510611784575b90849392915b601f830160051c82018110611775575050610f06565b6000815585945060010161175f565b5080611759565b015190508a80610ec5565b9250600588016000526020600020906000935b601f19841685106117ed576001945083601f198116106117d4575b505050811b016005860155610edd565b015160001960f88460031b161c191690558a80806117c4565b818101518355602094850194600190930192909101906117a9565b909150600588016000526020600020601f840160051c810160208510611854575b90849392915b601f830160051c82018110611845575050610eae565b6000815585945060010161182f565b5080611829565b015190508b80610e6d565b9250600489016000526020600020906000935b601f19841685106118bd576001945083601f198116106118a4575b505050811b016004870155610e85565b015160001960f88460031b161c191690558b8080611894565b81810151835560209485019460019093019290910190611879565b909150600489016000526020600020601f840160051c810160208510611924575b90849392915b601f830160051c82018110611915575050610e56565b600081558594506001016118ff565b50806118f9565b015190508c80610e15565b925060038a016000526020600020906000935b601f198416851061198d576001945083601f19811610611974575b505050811b016003880155610e2d565b015160001960f88460031b161c191690558c8080611964565b81810151835560209485019460019093019290910190611949565b90915060038a016000526020600020601f840160051c8101602085106119f4575b90849392915b601f830160051c820181106119e5575050610dfe565b600081558594506001016119cf565b50806119c9565b015190508d80610dbd565b925060028b016000526020600020906000935b601f1984168510611a5d576001945083601f19811610611a44575b505050811b016002890155610dd5565b015160001960f88460031b161c191690558d8080611a34565b81810151835560209485019460019093019290910190611a19565b90915060028b016000526020600020601f840160051c810160208510611ac4575b90849392915b601f830160051c82018110611ab5575050610da6565b60008155859450600101611a9f565b5080611a99565b015190508e80610d65565b925060018c016000526020600020906000935b601f1984168510611b2d576001945083601f19811610611b14575b505050811b0160018a0155610d7d565b015160001960f88460031b161c191690558e8080611b04565b81810151835560209485019460019093019290910190611ae9565b90915060018c016000526020600020601f840160051c810160208510611b94575b90849392915b601f830160051c82018110611b85575050610d4e565b60008155859450600101611b6f565b5080611b69565b015190508f80610d10565b92508c6000526020600020906000935b601f1984168510611bf7576001945083601f19811610611bde575b505050811b018a55610d25565b015160001960f88460031b161c191690558f8080611bd1565b81810151835560209485019460019093019290910190611bb6565b9091508c6000526020600020601f840160051c810160208510611c5b575b90849392915b601f830160051c82018110611c4c575050610cf9565b60008155859450600101611c36565b5080611c30565b3461019d57600036600319011261019d57604051806003549182815260208091019260036000527fc2575a0e9e593c00f959f8c92f12db2869c3395a3b0502d05e2516446f71f85b916000905b828210611cc6576102dd856104198189038261486a565b83546001600160a01b031686529485019460019384019390910190611caf565b3461019d57602036600319011261019d576001600160a01b0380611d08614810565b1660005260066020526040600020908154168060005260056020526102dd611d366001604060002001614c3b565b92611df5611d4660028301614c3b565b91611de7611d5660038301614c3b565b611dd9611d6560068501614c3b565b611dcb611d7460048701614c3b565b93611dbd611d906007611d8960058b01614c3b565b9901614c3b565b99611daf6040519e8f9e8f908152610100908160208201520190614996565b8d810360408f015290614996565b908b820360608d0152614996565b9089820360808b0152614996565b9087820360a0890152614996565b9085820360c0870152614996565b9083820360e0850152614996565b3461019d57600036600319011261019d576000546040516001600160a01b039091168152602090f35b3461019d57611e3a36614b98565b9390949592919533600052600960205260ff6040600020541661019d5760056020526040600020938051906001600160401b0382116107b3578190611e7f8754614bdc565b601f811161267a575b50602090601f831160011461261457600092612609575b50508160011b916000199060031b1c19161784555b8051906001600160401b0382116107b3578190611ed46001870154614bdc565b601f81116125b6575b50602090601f831160011461254457600092612539575b50508160011b916000199060031b1c19161760018401555b8051906001600160401b0382116107b3578190611f2c6002860154614bdc565b601f81116124e6575b50602090601f831160011461247457600092612469575b50508160011b916000199060031b1c19161760028301555b8051906001600160401b0382116107b3578190611f846003850154614bdc565b601f8111612416575b50602090601f83116001146123a457600092612399575b50508160011b916000199060031b1c19161760038201555b83516001600160401b0381116107b357611fd96004830154614bdc565b601f811161234e575b506020601f82116001146122df5781929394956000926122d4575b50508160011b916000199060031b1c19161760048201555b82516001600160401b0381116107b3576120326005830154614bdc565b601f8111612289575b506020601f821160011461221d5781929394600092612212575b50508160011b916000199060031b1c19161760058201555b6006810182516001600160401b0381116107b35761208b8254614bdc565b601f81116121ca575b506020601f82116001146121645781929394600092612159575b50508160011b916000199060031b1c19161790555b60078101906bffffffffffffffffffffffff60a01b913383825416179055600842910155600254600160401b8110156107b35760018101806002558110156111f7577f405787fa12a823e0f2b7631cc41b3ba8828b3321ca811111fa75cd3aa3bb5ace019033908254161790553360005260096020526040600020600160ff19825416179055612154600c54614c16565b600c55005b0151905084806120ae565b601f198216908360005260206000209160005b8181106121b257509583600195969710612199575b505050811b0190556120c3565b015160001960f88460031b161c1916905584808061218c565b9192602060018192868b015181550194019201612177565b826000526020600020601f830160051c81019160208410612208575b601f0160051c01905b8181106121fc5750612094565b600081556001016121ef565b90915081906121e6565b015190508480612055565b601f198216906005840160005260206000209160005b81811061227157509583600195969710612258575b505050811b01600582015561206d565b015160001960f88460031b161c19169055848080612248565b9192602060018192868b015181550194019201612233565b600583016000526020600020601f830160051c810191602084106122ca575b601f0160051c01905b8181106122be575061203b565b600081556001016122b1565b90915081906122a8565b015190508580611ffd565b6004830160005260206000209060005b601f1984168110612336575060019394959683601f1981161061231d575b505050811b016004820155612015565b015160001960f88460031b161c1916905585808061230d565b9091602060018192858b0151815501930191016122ef565b600483016000526020600020601f830160051c8101916020841061238f575b601f0160051c01905b8181106123835750611fe2565b60008155600101612376565b909150819061236d565b015190508680611fa4565b9250600384016000526020600020906000935b601f19841685106123fb576001945083601f198116106123e2575b505050811b016003820155611fbc565b015160001960f88460031b161c191690558680806123d2565b818101518355602094850194600190930192909101906123b7565b909150600384016000526020600020601f840160051c810160208510612462575b90849392915b601f830160051c82018110612453575050611f8d565b6000815585945060010161243d565b5080612437565b015190508780611f4c565b9250600285016000526020600020906000935b601f19841685106124cb576001945083601f198116106124b2575b505050811b016002830155611f64565b015160001960f88460031b161c191690558780806124a2565b81810151835560209485019460019093019290910190612487565b909150600285016000526020600020601f840160051c810160208510612532575b90849392915b601f830160051c82018110612523575050611f35565b6000815585945060010161250d565b5080612507565b015190508880611ef4565b9250600186016000526020600020906000935b601f198416851061259b576001945083601f19811610612582575b505050811b016001840155611f0c565b015160001960f88460031b161c19169055888080612572565b81810151835560209485019460019093019290910190612557565b909150600186016000526020600020601f840160051c810160208510612602575b90849392915b601f830160051c820181106125f3575050611edd565b600081558594506001016125dd565b50806125d7565b015190508980611e9f565b6000888152602081209350601f198516905b8181106126625750908460019594939210612649575b505050811b018455611eb4565b015160001960f88460031b161c1916905589808061263c565b92936020600181928786015181550195019301612626565b909150866000526020600020601f840160051c8101602085106126c3575b90849392915b601f830160051c820181106126b4575050611e88565b6000815585945060010161269e565b5080612698565b3461019d57600036600319011261019d576020600c54604051908152f35b3461019d57602036600319011261019d576001600160a01b03612709614810565b1660005260056020526020600860406000200154604051908152f35b3461019d57602036600319011261019d576001600160a01b03612746614810565b1660005260066020526020600860406000200154604051908152f35b3461019d57602036600319011261019d5761277b614810565b33600052600760205260406000209060018060a01b03166000526020526040600020600160ff198254161790556127b3600e54614c16565b600e55602060405160018152f35b3461019d57602036600319011261019d576001600160a01b036127e2614810565b1680600052600760205260406000203360005260205260ff604060002054161561019d576000526004602052604060002061028281614c3b565b3461019d5761282a366149d6565b99909a9b98919b97929796939695949533600052600860205260ff604060002054161561019d5760046020526040600020998051906001600160401b0382116107b35781906128798d54614bdc565b601f81116136b2575b50602090601f83116001146136465760009261363b575b50508160011b916000199060031b1c1916178a555b8051906001600160401b0382116107b35781906128ce60018d0154614bdc565b601f81116135e8575b50602090601f83116001146135765760009261356b575b50508160011b916000199060031b1c19161760018a01555b8051906001600160401b0382116107b357819061292660028c0154614bdc565b601f8111613518575b50602090601f83116001146134a65760009261349b575b50508160011b916000199060031b1c19161760028901555b8051906001600160401b0382116107b357819061297e60038b0154614bdc565b601f8111613448575b50602090601f83116001146133d6576000926133cb575b50508160011b916000199060031b1c19161760038801555b8051906001600160401b0382116107b35781906129d660048a0154614bdc565b601f8111613378575b50602090601f8311600114613306576000926132fb575b50508160011b916000199060031b1c19161760048701555b8051906001600160401b0382116107b3578190612a2e6005890154614bdc565b601f81116132a8575b50602090601f83116001146132365760009261322b575b50508160011b916000199060031b1c19161760058601555b8051906001600160401b0382116107b3578190612a866006880154614bdc565b601f81116131d8575b50602090601f83116001146131665760009261315b575b50508160011b916000199060031b1c19161760068501555b8051906001600160401b0382116107b3578190612ade6007870154614bdc565b601f8111613108575b50602090601f831160011461309b57600092613090575b50508160011b916000199060031b1c19161760078401555b8051906001600160401b0382116107b3578190612b366008860154614bdc565b601f811161303d575b50602090601f8311600114612fd057600092612fc5575b50508160011b916000199060031b1c19161760088301555b8051906001600160401b0382116107b3578190612b8e6009850154614bdc565b601f8111612f6f575b50602090601f8311600114612f0257600092612ef7575b50508160011b916000199060031b1c19161760098201555b83516001600160401b0381116107b357612be3600a830154614bdc565b601f8111612eac575b50602094601f8211600114612e4057948192939495600092612e35575b50508160011b916000199060031b1c191617600a8201555b600b810183516001600160401b0381116107b357612c3f8254614bdc565b601f8111612ded575b50602094601f8211600114612d8757948192939495600092612d7c575b50508160011b916000199060031b1c19161790555b600c81018251926001600160401b0384116107b357612c998254614bdc565b601f8111612d34575b50602090601f8511600114612ce457600d9491600091836106f65750508160011b916000199060031b1c19161790550180546001600160a01b03191633179055005b90601f198516918360005260206000209260005b818110612d1c5750916001939187600d98941061073a57505050811b0190556106e3565b92936020600181928786015181550195019301612cf8565b826000526020600020601f860160051c81019160208710612d72575b601f0160051c01905b818110612d665750612ca2565b60008155600101612d59565b9091508190612d50565b015190508580612c65565b601f198216958360005260206000209160005b888110612dd557508360019596979810612dbc575b505050811b019055612c7a565b015160001960f88460031b161c19169055858080612daf565b91926020600181928685015181550194019201612d9a565b826000526020600020601f830160051c81019160208410612e2b575b601f0160051c01905b818110612e1f5750612c48565b60008155600101612e12565b9091508190612e09565b015190508580612c09565b601f19821695600a840160005260206000209160005b888110612e9457508360019596979810612e7b575b505050811b01600a820155612c21565b015160001960f88460031b161c19169055858080612e6b565b91926020600181928685015181550194019201612e56565b600a83016000526020600020601f830160051c81019160208410612eed575b601f0160051c01905b818110612ee15750612bec565b60008155600101612ed4565b9091508190612ecb565b015190508680612bae565b600985016000908152602081209350601f198516905b818110612f575750908460019594939210612f3e575b505050811b016009820155612bc6565b015160001960f88460031b161c19169055868080612f2e565b92936020600181928786015181550195019301612f18565b909150600984016000526020600020601f840160051c81019160208510612fbb575b90601f859493920160051c01905b818110612fac5750612b97565b60008155849350600101612f9f565b9091508190612f91565b015190508780612b56565b600886016000908152602081209350601f198516905b818110613025575090846001959493921061300c575b505050811b016008830155612b6e565b015160001960f88460031b161c19169055878080612ffc565b92936020600181928786015181550195019301612fe6565b909150600885016000526020600020601f840160051c810160208510613089575b90849392915b601f830160051c8201811061307a575050612b3f565b60008155859450600101613064565b508061305e565b015190508880612afe565b600787016000908152602081209350601f198516905b8181106130f057509084600195949392106130d7575b505050811b016007840155612b16565b015160001960f88460031b161c191690558880806130c7565b929360206001819287860151815501950193016130b1565b909150600786016000526020600020601f840160051c810160208510613154575b90849392915b601f830160051c82018110613145575050612ae7565b6000815585945060010161312f565b5080613129565b015190508980612aa6565b9250600687016000526020600020906000935b601f19841685106131bd576001945083601f198116106131a4575b505050811b016006850155612abe565b015160001960f88460031b161c19169055898080613194565b81810151835560209485019460019093019290910190613179565b909150600687016000526020600020601f840160051c810160208510613224575b90849392915b601f830160051c82018110613215575050612a8f565b600081558594506001016131ff565b50806131f9565b015190508a80612a4e565b9250600588016000526020600020906000935b601f198416851061328d576001945083601f19811610613274575b505050811b016005860155612a66565b015160001960f88460031b161c191690558a8080613264565b81810151835560209485019460019093019290910190613249565b909150600588016000526020600020601f840160051c8101602085106132f4575b90849392915b601f830160051c820181106132e5575050612a37565b600081558594506001016132cf565b50806132c9565b015190508b806129f6565b9250600489016000526020600020906000935b601f198416851061335d576001945083601f19811610613344575b505050811b016004870155612a0e565b015160001960f88460031b161c191690558b8080613334565b81810151835560209485019460019093019290910190613319565b909150600489016000526020600020601f840160051c8101602085106133c4575b90849392915b601f830160051c820181106133b55750506129df565b6000815585945060010161339f565b5080613399565b015190508c8061299e565b925060038a016000526020600020906000935b601f198416851061342d576001945083601f19811610613414575b505050811b0160038801556129b6565b015160001960f88460031b161c191690558c8080613404565b818101518355602094850194600190930192909101906133e9565b90915060038a016000526020600020601f840160051c810160208510613494575b90849392915b601f830160051c82018110613485575050612987565b6000815585945060010161346f565b5080613469565b015190508d80612946565b925060028b016000526020600020906000935b601f19841685106134fd576001945083601f198116106134e4575b505050811b01600289015561295e565b015160001960f88460031b161c191690558d80806134d4565b818101518355602094850194600190930192909101906134b9565b90915060028b016000526020600020601f840160051c810160208510613564575b90849392915b601f830160051c8201811061355557505061292f565b6000815585945060010161353f565b5080613539565b015190508e806128ee565b925060018c016000526020600020906000935b601f19841685106135cd576001945083601f198116106135b4575b505050811b0160018a0155612906565b015160001960f88460031b161c191690558e80806135a4565b81810151835560209485019460019093019290910190613589565b90915060018c016000526020600020601f840160051c810160208510613634575b90849392915b601f830160051c820181106136255750506128d7565b6000815585945060010161360f565b5080613609565b015190508f80612899565b92508c6000526020600020906000935b601f1984168510613697576001945083601f1981161061367e575b505050811b018a556128ae565b015160001960f88460031b161c191690558f8080613671565b81810151835560209485019460019093019290910190613656565b9091508c6000526020600020601f840160051c8101602085106136fb575b90849392915b601f830160051c820181106136ec575050612882565b600081558594506001016136d6565b50806136d0565b3461019d57602036600319011261019d576001600160a01b03613723614810565b1680600052600760205260406000203360005260205260ff604060002054161561019d5760005260046020526137c660406000206102dd61376660078301614c3b565b916137fe61377660088301614c3b565b916137f061378660098301614c3b565b6137e2613795600a8501614c3b565b916137d46137b1600c6137aa600b8901614c3b565b9701614c3b565b976040519b8c9b60c08d5260c08d0190614996565b908b820360208d0152614996565b9089820360408b0152614996565b908782036060890152614996565b908582036080870152614996565b9083820360a0850152614996565b3461019d5761381a366148e1565b93909492919533600052600960205260ff604060002054161561019d576001600160a01b0316600081815260066020526040902080546001600160a01b031990811633178255600182018054909116909217909155835190936001600160401b0382116107b35781906138906002870154614bdc565b601f8111613ecb575b50602090601f8311600114613e5e57600092613e53575b50508160011b916000199060031b1c19161760028401555b8051906001600160401b0382116107b35781906138e86003860154614bdc565b601f8111613e00575b50602090601f8311600114613d8e57600092613d83575b50508160011b916000199060031b1c19161760038301555b8051906001600160401b0382116107b35781906139406006850154614bdc565b601f8111613d2d575b50602090601f8311600114613cc057600092613cb5575b50508160011b916000199060031b1c19161760068201555b83516001600160401b0381116107b3576139956004830154614bdc565b601f8111613c6a575b50602094601f8211600114613bfe57948192939495600092613bf3575b50508160011b916000199060031b1c19161760048201555b6005810183516001600160401b0381116107b3576139f18254614bdc565b601f8111613bab575b506020601f8211600114613b4157819060079596600092613b36575b50508160011b916000199060031b1c19161790555b0181516001600160401b0381116107b357613a468254614bdc565b601f8111613aee575b50602092601f8211600114613a8d5792819293600092613a82575b5050600019600383901b1c191660019190911b179055005b015190508380613a6a565b601f198216938360005260206000209160005b868110613ad65750836001959610613abd575b505050811b019055005b015160001960f88460031b161c19169055838080613ab3565b91926020600181928685015181550194019201613aa0565b826000526020600020601f830160051c81019160208410613b2c575b601f0160051c01905b818110613b205750613a4f565b60008155600101613b13565b9091508190613b0a565b015190508680613a16565b601f198216958360005260206000209660005b818110613b935750916007969791846001959410613b7a575b505050811b019055613a2b565b015160001960f88460031b161c19169055868080613b6d565b83830151895560019098019760209384019301613b54565b826000526020600020601f830160051c81019160208410613be9575b601f0160051c01905b818110613bdd57506139fa565b60008155600101613bd0565b9091508190613bc7565b0151905085806139bb565b601f198216956004840160005260206000209160005b888110613c5257508360019596979810613c39575b505050811b0160048201556139d3565b015160001960f88460031b161c19169055858080613c29565b91926020600181928685015181550194019201613c14565b600483016000526020600020601f830160051c81019160208410613cab575b601f0160051c01905b818110613c9f575061399e565b60008155600101613c92565b9091508190613c89565b015190508680613960565b600685016000908152602081209350601f198516905b818110613d155750908460019594939210613cfc575b505050811b016006820155613978565b015160001960f88460031b161c19169055868080613cec565b92936020600181928786015181550195019301613cd6565b909150600684016000526020600020601f840160051c81019160208510613d79575b90601f859493920160051c01905b818110613d6a5750613949565b60008155849350600101613d5d565b9091508190613d4f565b015190508780613908565b9250600385016000526020600020906000935b601f1984168510613de5576001945083601f19811610613dcc575b505050811b016003830155613920565b015160001960f88460031b161c19169055878080613dbc565b81810151835560209485019460019093019290910190613da1565b909150600385016000526020600020601f840160051c810160208510613e4c575b90849392915b601f830160051c82018110613e3d5750506138f1565b60008155859450600101613e27565b5080613e21565b0151905088806138b0565b600287016000908152602081209350601f198516905b818110613eb35750908460019594939210613e9a575b505050811b0160028401556138c8565b015160001960f88460031b161c19169055888080613e8a565b92936020600181928786015181550195019301613e74565b909150600286016000526020600020601f840160051c810160208510613f15575b90601f8594930160051c01905b818110613f065750613899565b60008155849350600101613ef9565b5080613eec565b3461019d57613f2a366148e1565b949290959333600052600960205260ff604060002054161561019d576001600160a01b038516600081815260066020526040902080546001600160a01b031990811633178255600182018054909116909217909155845190946001600160401b0382116107b3578190613fa06002880154614bdc565b601f8111614695575b50602090601f831160011461462357600092614618575b50508160011b916000199060031b1c19161760028501555b8051906001600160401b0382116107b3578190613ff86003870154614bdc565b601f81116145c5575b50602090601f831160011461455357600092614548575b50508160011b916000199060031b1c19161760038401555b8051906001600160401b0382116107b35781906140506006860154614bdc565b601f81116144f5575b50602090601f831160011461448357600092614478575b50508160011b916000199060031b1c19161760068301555b8051906001600160401b0382116107b35781906140a86004850154614bdc565b601f8111614425575b50602090601f83116001146143b3576000926143a8575b50508160011b916000199060031b1c19161760048201555b83516001600160401b0381116107b3576140fd6005830154614bdc565b601f811161435d575b50602094601f82116001146142f1579481929394956000926142e6575b50508160011b916000199060031b1c19161760058201555b6007810183516001600160401b0381116107b3576141598254614bdc565b601f811161429e575b50602094601f82116001146142385794819293949560009261422d575b50508160011b916000199060031b1c19161790555b600842910155600354600160401b8110156107b35760018101806003558110156111f75760036000527fc2575a0e9e593c00f959f8c92f12db2869c3395a3b0502d05e2516446f71f85b0180546001600160a01b0319166001600160a01b038316179055600d5461420490614c16565b600d556001600160a01b03166000908152600a60205260409020805461422990614c16565b9055005b01519050858061417f565b601f198216958360005260206000209160005b8881106142865750836001959697981061426d575b505050811b019055614194565b015160001960f88460031b161c19169055858080614260565b9192602060018192868501518155019401920161424b565b826000526020600020601f830160051c810191602084106142dc575b601f0160051c01905b8181106142d05750614162565b600081556001016142c3565b90915081906142ba565b015190508580614123565b601f198216956005840160005260206000209160005b8881106143455750836001959697981061432c575b505050811b01600582015561413b565b015160001960f88460031b161c1916905585808061431c565b91926020600181928685015181550194019201614307565b600583016000526020600020601f830160051c8101916020841061439e575b601f0160051c01905b8181106143925750614106565b60008155600101614385565b909150819061437c565b0151905086806140c8565b9250600484016000526020600020906000935b601f198416851061440a576001945083601f198116106143f1575b505050811b0160048201556140e0565b015160001960f88460031b161c191690558680806143e1565b818101518355602094850194600190930192909101906143c6565b909150600484016000526020600020601f840160051c810160208510614471575b90849392915b601f830160051c820181106144625750506140b1565b6000815585945060010161444c565b5080614446565b015190508780614070565b9250600685016000526020600020906000935b601f19841685106144da576001945083601f198116106144c1575b505050811b016006830155614088565b015160001960f88460031b161c191690558780806144b1565b81810151835560209485019460019093019290910190614496565b909150600685016000526020600020601f840160051c810160208510614541575b90849392915b601f830160051c82018110614532575050614059565b6000815585945060010161451c565b5080614516565b015190508880614018565b9250600386016000526020600020906000935b601f19841685106145aa576001945083601f19811610614591575b505050811b016003840155614030565b015160001960f88460031b161c19169055888080614581565b81810151835560209485019460019093019290910190614566565b909150600386016000526020600020601f840160051c810160208510614611575b90849392915b601f830160051c82018110614602575050614001565b600081558594506001016145ec565b50806145e6565b015190508980613fc0565b9250600287016000526020600020906000935b601f198416851061467a576001945083601f19811610614661575b505050811b016002850155613fd8565b015160001960f88460031b161c19169055898080614651565b81810151835560209485019460019093019290910190614636565b909150600287016000526020600020601f840160051c8101602085106146e1575b90849392915b601f830160051c820181106146d2575050613fa9565b600081558594506001016146bc565b50806146b6565b3461019d57600036600319011261019d5760405180600191825492838252602080920193816000527fb10e2d527612073b26eecdfd717e6a320cf44b4afac2b0732d9fcbe2b7fa0cf6926000905b82821061474d576102dd86610419818a038261486a565b84546001600160a01b03168752958601959383019390830190614736565b3461019d57602036600319011261019d5760043560025481101561019d5760026000527f405787fa12a823e0f2b7631cc41b3ba8828b3321ca811111fa75cd3aa3bb5ace01546040516001600160a01b039091168152602090f35b3461019d57602036600319011261019d576020906147e2614810565b3360009081526007845260408082206001600160a01b03909316825291845220805460ff1916905560018152f35b600435906001600160a01b038216820361019d57565b6020908160408183019282815285518094520193019160005b82811061484d575050505090565b83516001600160a01b03168552938101939281019260010161483f565b90601f801991011681019081106001600160401b038211176107b357604052565b81601f8201121561019d578035906001600160401b0382116107b357604051926148bf601f8401601f19166020018561486a565b8284526020838301011161019d57816000926020809301838601378301015290565b60e060031982011261019d5760049182356001600160a01b038116810361019d57926001600160401b039260243584811161019d578161492291840161488b565b9360443581811161019d578261493991850161488b565b9360643582811161019d578361495091860161488b565b9360843583811161019d578461496791830161488b565b9360a43584811161019d578161497e91840161488b565b9360c43590811161019d57614993920161488b565b90565b919082519283825260005b8481106149c2575050826000602080949584010152601f8019910116010190565b6020818301810151848301820152016149a1565b6101a060031982011261019d576004906001600160401b03823581811161019d5782614a0391850161488b565b9360243582811161019d5783614a1a91860161488b565b9360443583811161019d5784614a3191830161488b565b9360643584811161019d5781614a4891840161488b565b9360843581811161019d5782614a5f91850161488b565b9360a43582811161019d5783614a7691860161488b565b9360c43583811161019d5784614a8d91830161488b565b9360e43584811161019d5781614aa491840161488b565b936101043581811161019d5782614abc91850161488b565b936101243582811161019d5783614ad491860161488b565b936101443583811161019d5784614aec91830161488b565b936101643584811161019d5781614b0491840161488b565b936101843590811161019d57614993920161488b565b9592614b8a94614b60614b6e92614b52614b7c96614b446149939d9b9760e08e8181520190614996565b8c810360208e015290614996565b908a820360408c0152614996565b9088820360608a0152614996565b908682036080880152614996565b9084820360a0860152614996565b9160c0818403910152614996565b9060e060031983011261019d576001600160401b03906004803583811161019d5784614bc591830161488b565b9360243584811161019d578161492291840161488b565b90600182811c92168015614c0c575b6020831014614bf657565b634e487b7160e01b600052602260045260246000fd5b91607f1691614beb565b6000198114614c255760010190565b634e487b7160e01b600052601160045260246000fd5b9060405191826000825492614c4f84614bdc565b908184526001948581169081600014614cbe5750600114614c7b575b5050614c799250038361486a565b565b9093915060005260209081600020936000915b818310614ca6575050614c7993508201013880614c6b565b85548884018501529485019487945091830191614c8e565b915050614c7994506020925060ff191682840152151560051b8201013880614c6b56fea264697066735822122019263669242b81d439fe6bf38733270a9687500b56f5a5750aa8e71782f5fa0064736f6c63430008130033",
  "immutableReferences": {},
  "source": "// SPDX-License-Identifier: MIT\npragma solidity >=0.4.25 <0.9.0;\n\ncontract Record {\n    \n    struct Patients{\n        string ic;\n        string name;\n        string phone;\n        string gender;\n        string dob;\n        string height;\n        string weight;\n        string houseaddr;\n        string bloodgroup;\n        string allergies;\n        string medication;\n        string emergencyName;\n        string emergencyContact;\n        address addr;\n        uint date;\n    }\n\n    struct Doctors{\n        string ic;\n        string name;\n        string phone;\n        string gender;\n        string dob;\n        string qualification;\n        string major;\n        address addr;\n        uint date;\n    }\n\n    struct Appointments{\n        address doctoraddr;\n        address patientaddr;\n        string date;\n        string time;\n        string prescription;\n        string description;\n        string diagnosis;\n        string status;\n        uint creationDate;\n    }\n    \n    address public owner;\n    address[] public patientList;\n    address[] public doctorList;\n    address[] public appointmentList;\n\n    mapping(address => Patients) patients;\n    mapping(address => Doctors) doctors;\n    mapping(address => Appointments) appointments;\n\n    mapping(address=>mapping(address=>bool)) isApproved;\n    mapping(address => bool) isPatient;\n    mapping(address => bool) isDoctor;\n    mapping(address => uint) AppointmentPerPatient;\n\n    uint256 public patientCount = 0;\n    uint256 public doctorCount = 0;\n    uint256 public appointmentCount = 0;\n    uint256 public permissionGrantedCount = 0;\n    \n    function Records() public {\n        owner = msg.sender;\n    }\n    \n    //Retrieve patient details from user sign up page and store the details into the blockchain\n    function setDetails(string memory _ic, string memory _name, string memory _phone, string memory _gender, string memory _dob, string memory _height, string memory _weight, string memory _houseaddr, string memory _bloodgroup, string memory _allergies, string memory _medication, string memory _emergencyName, string memory _emergencyContact) public {\n        require(!isPatient[msg.sender]);\n        Patients storage p = patients[msg.sender];\n        \n        p.ic = _ic;\n        p.name = _name;\n        p.phone = _phone;\n        p.gender = _gender;\n        p.dob = _dob;\n        p.height = _height; \n        p.weight = _weight;\n        p.houseaddr = _houseaddr;\n        p.bloodgroup = _bloodgroup;\n        p.allergies = _allergies;\n        p.medication = _medication;\n        p.emergencyName = _emergencyName;\n        p.emergencyContact = _emergencyContact;\n        p.addr = msg.sender;\n        p.date = block.timestamp;\n        \n        patientList.push(msg.sender);\n        isPatient[msg.sender] = true;\n        isApproved[msg.sender][msg.sender] = true;\n        patientCount++;\n    }\n    \n    //Allows patient to edit their existing record\n    function editDetails(string memory _ic, string memory _name, string memory _phone, string memory _gender, string memory _dob, string memory _height, string memory _weight, string memory _houseaddr, string memory _bloodgroup, string memory _allergies, string memory _medication, string memory _emergencyName, string memory _emergencyContact) public {\n        require(isPatient[msg.sender]);\n        Patients storage p = patients[msg.sender];\n\n        \n        p.ic = _ic;\n        p.name = _name;\n        p.phone = _phone;\n        p.gender = _gender;\n        p.dob = _dob;\n        p.height = _height; \n        p.weight = _weight;\n        p.houseaddr = _houseaddr;\n        p.bloodgroup = _bloodgroup;\n        p.allergies = _allergies;\n        p.medication = _medication;\n        p.emergencyName = _emergencyName;\n        p.emergencyContact = _emergencyContact;\n        p.addr = msg.sender;    \n    }\n\n    //Retrieve patient details from doctor registration page and store the details into the blockchain\n    function setDoctor(string memory _ic, string memory _name, string memory _phone, string memory _gender, string memory _dob, string memory _qualification, string memory _major) public {\n        require(!isDoctor[msg.sender]);\n        Doctors storage d = doctors[msg.sender];\n        \n        d.ic = _ic;\n        d.name = _name;\n        d.phone = _phone;\n        d.gender = _gender;\n        d.dob = _dob;\n        d.qualification = _qualification;\n        d.major = _major;\n        d.addr = msg.sender;\n        d.date = block.timestamp;\n        \n        doctorList.push(msg.sender);\n        isDoctor[msg.sender] = true;\n        doctorCount++;\n    }\n\n    //Allows doctors to edit their existing profile\n    function editDoctor(string memory _ic, string memory _name, string memory _phone, string memory _gender, string memory _dob, string memory _qualification, string memory _major) public {\n        require(isDoctor[msg.sender]);\n        Doctors storage d = doctors[msg.sender];\n        \n        d.ic = _ic;\n        d.name = _name;\n        d.phone = _phone;\n        d.gender = _gender;\n        d.dob = _dob;\n        d.qualification = _qualification;\n        d.major = _major;\n        d.addr = msg.sender;\n    }\n\n    //Retrieve appointment details from appointment page and store the details into the blockchain\n    function setAppointment(address  _addr, string memory _date, string memory _time, string memory _diagnosis, string memory _prescription, string memory _description, string memory _status) public {\n        require(isDoctor[msg.sender]);\n        Appointments storage a = appointments[_addr]; \n        \n        a.doctoraddr = msg.sender;\n        a.patientaddr = _addr;\n        a.date = _date;\n        a.time = _time;\n        a.diagnosis = _diagnosis;\n        a.prescription = _prescription; \n        a.description = _description;\n        a.status = _status;\n        a.creationDate = block.timestamp;\n\n        appointmentList.push(_addr);\n        appointmentCount++;\n        AppointmentPerPatient[_addr]++;\n    }\n    \n    //Retrieve appointment details from appointment page and store the details into the blockchain\n    function updateAppointment(address _addr, string memory _date, string memory _time, string memory _diagnosis, string memory _prescription, string memory _description, string memory _status) public {\n        require(isDoctor[msg.sender]);\n        Appointments storage a = appointments[_addr]; \n        \n        a.doctoraddr = msg.sender;\n        a.patientaddr = _addr;\n        a.date = _date;\n        a.time = _time;\n        a.diagnosis = _diagnosis;\n        a.prescription = _prescription; \n        a.description = _description;\n        a.status = _status;\n    }\n    \n    //Owner of the record must give permission to doctor only they are allowed to view records\n    function givePermission(address _address) public returns(bool success) {\n        isApproved[msg.sender][_address] = true;\n        permissionGrantedCount++;\n        return true;\n    }\n\n    //Owner of the record can take away the permission granted to doctors to view records\n    function RevokePermission(address _address) public returns(bool success) {\n        isApproved[msg.sender][_address] = false;\n        return true;\n    }\n\n    //Retrieve a list of all patients address\n    function getPatients() public view returns(address[] memory) {\n        return patientList;\n    }\n\n    //Retrieve a list of all doctors address\n    function getDoctors() public view returns(address[] memory) {\n        return doctorList;\n    }\n\n    //Retrieve a list of all appointments address\n    function getAppointments() public view returns(address[] memory) {\n        return appointmentList;\n    }\n    \n    //Search patient details by entering a patient address (Only record owner or doctor with permission will be allowed to access)\n    function searchPatientDemographic(address _address) public view returns(string memory, string memory, string memory, string memory, string memory, string memory, string memory) {\n        require(isApproved[_address][msg.sender]);\n        \n        Patients storage p = patients[_address];\n        \n        return (p.ic, p.name, p.phone, p.gender, p.dob, p.height, p.weight);\n    }\n\n    //Search patient details by entering a patient address (Only record owner or doctor with permission will be allowed to access)\n    function searchPatientMedical(address _address) public view returns(string memory, string memory, string memory, string memory, string memory, string memory) {\n        require(isApproved[_address][msg.sender]);\n        \n        Patients storage p = patients[_address];\n        \n        return (p.houseaddr, p.bloodgroup, p.allergies, p.medication, p.emergencyName, p.emergencyContact);\n    }\n\n    //Search doctor details by entering a doctor address (Only doctor will be allowed to access)\n    function searchDoctor(address _address) public view returns(string memory, string memory, string memory, string memory, string memory, string memory, string memory) {\n        require(isDoctor[_address]);\n        \n        Doctors storage d = doctors[_address];\n        \n        return (d.ic, d.name, d.phone, d.gender, d.dob, d.qualification, d.major);\n    }\n    \n    //Search appointment details by entering a patient address\n    function searchAppointment(address _address) public view returns(address, string memory, string memory, string memory, string memory, string memory, string memory, string memory) {\n        Appointments storage a = appointments[_address];\n        Doctors storage d = doctors[a.doctoraddr];\n\n        return (a.doctoraddr, d.name, a.date, a.time, a.diagnosis, a.prescription, a.description, a.status);\n    }\n\n    //Search patient record creation date by entering a patient address\n    function searchRecordDate(address _address) public view returns(uint) {\n        Patients storage p = patients[_address];\n        \n        return (p.date);\n    }\n\n    //Search doctor profile creation date by entering a patient address\n    function searchDoctorDate(address _address) public view returns(uint) {\n        Doctors storage d = doctors[_address];\n        \n        return (d.date);\n    }\n\n    //Search appointment creation date by entering a patient address\n    function searchAppointmentDate(address _address) public view returns(uint) {\n        Appointments storage a = appointments[_address];\n        \n        return (a.creationDate);\n    }\n\n    //Retrieve patient count\n    function getPatientCount() public view returns(uint256) {\n        return patientCount;\n    }\n\n    //Retrieve doctor count\n    function getDoctorCount() public view returns(uint256) {\n        return doctorCount;\n    }\n\n    //Retrieve appointment count\n    function getAppointmentCount() public view returns(uint256) {\n        return appointmentCount;\n    }\n\n    //Retrieve permission granted count\n    function getPermissionGrantedCount() public view returns(uint256) {\n        return permissionGrantedCount;\n    }\n\n    //Retrieve permission granted count\n    function getAppointmentPerPatient(address _address) public view returns(uint256) {\n        return AppointmentPerPatient[_address];\n    }\n}",
  "sourcePath": "C:\\Users\\Sahan\\OneDrive\\Desktop\\complete_one2\\Complete_2\\contracts\\Record.sol",
  "compiler": {
    "name": "solc",
    "version": "0.8.19+commit.7dd6d404.Emscripten.clang"
  },
  "schemaVersion": "3.4.13",
  "updatedAt": "2023-05-09T11:57:19.349Z",
  "networkType": "ethereum",
  "devdoc": {
    "kind": "dev",
    "methods": {},
    "version": 1
  },
  "userdoc": {
    "kind": "user",
    "methods": {},
    "version": 1
  }
}